:020000040800F2
:10000000C8120020010100081B0D0008950C000813
:10001000190D000891010008750F0008000000008C
:100020000000000000000000000000001F0D00089C
:1000300093010008000000001D0D0008210D0008BC
:100040001B0100081B0100081B0100081B01000820
:100050001B0100081B0100081B0100081B01000810
:100060001B0100081B0100081B0100081B01000800
:100070001B0100081B0100081B0100081B010008F0
:100080001B0100081B0100081B0100081B010008E0
:100090001B0100081B0100081B0100081B010008D0
:1000A0001B0100081B0100081B0100081B010008C0
:1000B0001B0100081B010008850D00081B0100083A
:1000C0001B0100081B0100081B0100081B010008A0
:1000D0001B010008350F00081B0100081B01000868
:1000E0001B0100081B0100081B010008DFF80CD0F1
:1000F00000F03CF800480047D9180008C81200205A
:100100000648804706480047FEE7FEE7FEE7FEE7B1
:10011000FEE7FEE7FEE7FEE7FEE7FEE7830D0008E9
:10012000ED00000840EA01039B0703D009E008C97D
:10013000121F08C0042AFAD203E011F8013B00F8AC
:10014000013B521EF9D27047D2B201E000F8012BF8
:10015000491EFBD270470022F6E710B513460A4647
:1001600004461946FFF7F0FF204610BD064C074D28
:1001700006E0E06840F0010394E807009847103477
:10018000AC42F6D3FFF7B6FFE01F000800200008DE
:10019000FEE770472DE9F84FDFF8B891002409F128
:1001A000040A0AF1040B23460F270BF1040EC9E0E1
:1001B0000125A5402A40AA427DD1674ED1F804C04E
:1001C000ACEB0608B44532D014DCBCF1030F3AD0D6
:1001D00009DCBCF1000F2AD0BCF1010F1CD0BCF12E
:1001E000020F31D11DE0BCF1110F17D0BCF1120F7D
:1001F0002AD119E0B8F5881F19D006DCB8F5803F80
:1002000015D0B8F5801F1FD111E0B8F5001F0ED032
:10021000B8F5041F18D10AE0CB6815E0CB681B1DA8
:1002200012E0CB6808330FE0CB680C330CE08B682E
:100230002BB1012B4FF0080303D0456104E00423E8
:1002400002E0056100E00023FF2A01D8064601E034
:1002500000F104064FEA840501D9A5F12005D6F87E
:10026000008007FA05FC28EA0C0803FA05F548EABD
:100270000508C6F800804D68ED0062D5374DAE69BF
:1002800046F00106AE61AD6924F0030605F00105F4
:100290000095334D06EB050CDCF80850A607360F29
:1002A00007FA06F825EA0805DFF8B880404503D1CB
:1002B0004FF0000817E044E0DFF8AC80404502D181
:1002C0004FF001080FE0DFF8A480404502D14FF065
:1002D000020808E0DFF89880404502D14FF003089B
:1002E00001E04FF0040808FA06F848EA0508CCF8DF
:1002F00008804D68D9F80060ED034D4601D51643DE
:1003000000E096432E604D68DAF80060AD03554674
:1003100001D5164300E096432E604D68DBF800607F
:10032000ED025D4601D5164300E096432E604D6810
:10033000DEF80060AD02754601D5164300E0964335
:100340002E60641C0D682A46E5407FF431AFBDE89D
:10035000F88F00000004014000001110001002405E
:100360000000014000080140000C01400010014065
:10037000001401400AB1016170470904FBE7000065
:100380000148806870470000000000200248816832
:10039000027811448160704700000020074810B5C2
:1003A000016841F010010160032000F075F80020A1
:1003B00000F006F800F024F8002010BD00200240F4
:1003C00070B50D4D04464FF47A712878B1FBF0F00A
:1003D0000A490968B1FBF0F000F0ECFA48B9102CBA
:1003E00007D200222146501E00F036F800206C6033
:1003F00070BD012070BD0000000000200C00002036
:100400000C4808B5816941F001018161816901F001
:1004100001010091C16941F08051C161C06900F0E2
:10042000805000900448416821F0E06141F0007183
:10043000416008BD0010024000000140002809DBB7
:1004400000F01F02012191404009800000F1E020EE
:10045000C0F8001170470000F0B40E4B1B680C464A
:10046000C3F30223C3F10705042D00D90425191D88
:10047000072901D2002300E0DB1E012606FA05F160
:10048000491E214099409E40761E16403143F0BCE3
:1004900000F071BD0CED00E0064900F007020868AD
:1004A0004FF6FF03184040EA0220034A1043086059
:1004B000704700000CED00E00000FA052DE9F04760
:1004C0000F46050061D0434E306800F00700B84287
:1004D00009D2306820F0070038433060306800F0FF
:1004E0000700B84251D128683B4C810712D540071C
:1004F00003D5606840F4E06060602878000703D5A9
:10050000606840F4605060606068A96820F0F000A6
:10051000084360602878C00728D06868012810D098
:100520002168022810D0890700292EDA616821F09D
:10053000030101436160FFF723FF804641F28839E0
:100540000DE021688903EFE78901EDE7FFF718FF68
:10055000A0EB0801494502D90320BDE8F087606897
:10056000696800F00C00B0EB810FEFD1306800F04B
:100570000700B8420BD9306820F0070038433060DC
:10058000306800F00700B84201D00120E5E7287884
:10059000400705D56068E96820F4E06008436060C2
:1005A0002878000706D56068296920F4605040EA81
:1005B000C100606000F038F86168084AC1F30311B7
:1005C000515CC8400649086006480068FFF7F8FE1D
:1005D0000020C2E70020024000100240C81D0008B1
:1005E0000C00002004000020044805490068496808
:1005F000044AC1F30221515CC84070470C0000203E
:1006000000100240D81D00080448054900684968E8
:10061000044AC1F3C221515CC84070470C0000205D
:1006200000100240D81D000812A185B00FC98DE846
:100630000F0014A0144A006804905168134801F098
:100640000C03042B10D0082B0ED1C1F38343C90334
:100650001DF803000AD5516804AAC1F34041515C5A
:100660000A4A5043B0FBF1F005B0704708494843CF
:10067000FAE7000002030405060708090A0B0C0D3F
:100680000E0F1010010200000010024000127A004C
:1006900000093D002DE9F84F040070D02078C04DCE
:1006A000C00749D06868C0F38100012807D0686896
:1006B000C0F38100022809D16868C00306D5286804
:1006C000800339D560680028E7D035E06068B0F570
:1006D000803F0BD010B1B0F5A02F11D0286820F4C6
:1006E00080302860286820F4802002E0286840F4E8
:1006F00080302860606890B1FFF742FE06460AE04D
:10070000286840F480202860F0E700BFFFF738FE3B
:10071000801B642873D828688003F7D50CE0FFF7A6
:100720002FFE064605E000BFFFF72AFE801B642867
:10073000F0D828688003F7D420789A4E80074FF0CD
:1007400001094FF0000839D5686810F00C0F07D088
:100750006868C0F38100022809D16868C00306D424
:100760002868800714D52069012808D110E0206985
:10077000B0B1C6F80090FFF703FE074605E00AE1B6
:10078000FFF7FEFDC01B0228C4D828688007F7D5F4
:100790002868616920F0F80040EAC10028600DE097
:1007A000C6F80080FFF7ECFD074604E0FFF7E8FD20
:1007B000C01B022823D828688007F7D420780007B8
:1007C0002CD57948A169D9B1C0F80090FFF7D8FDC0
:1007D000074604E0FFF7D4FDC01B02280FD8686A63
:1007E0008007F7D571484FF4FA510068B0FBF1F07B
:1007F000009000BF0098411E0091FAD20EE080E008
:10080000C0F80080FFF7BCFD074604E0FFF7B8FD25
:10081000C01B022875D8686A8007F7D42078400783
:1008200060D5E8690027C00008D4E86940F080502E
:10083000E861E869012700F0805000905C48016899
:10084000C90513D40168834641F480710160FFF744
:1008500097FD824606E000BFFFF792FDA0EB0A007D
:1008600064284ED8DBF80000C005F5D5E068012803
:100870000AD008B1052813D0286A20F001002862A8
:10088000286A20F0040002E0286A40F00100286293
:10089000E06841F2883B98B1FFF772FD82460BE0B9
:1008A000286A40F004002862EEE700BFFFF768FD09
:1008B000A0EB0A0159455AD8286A8007F6D50CE002
:1008C000FFF75EFD824605E0FFF75AFDA0EB0A0147
:1008D00059454CD8286A8007F6D41FB1E86920F042
:1008E0008050E861E06988B36968C1F38101022939
:1008F00044D00228C6F8608004D0FFF741FD0446CA
:1009000038E034E0FFF73CFD074604E0FFF738FD30
:10091000C01B02282BD828688001F7D4206AB0F5C4
:10092000803F05D16868A16820F400300843686002
:10093000D4E908010843696821F474110843686028
:10094000C6F86090FFF71CFD044606E025E000BFF6
:10095000FFF716FD001B022809D828688001F7D58B
:100960001BE000BFFFF70CFD001B022802D903208B
:10097000BDE8F88F28688001F4D40EE00128F7D094
:100980006868226A00F48031914204D1616A00F4FF
:100990007010884201D00120EAE70020E8E700005B
:1009A0000010024000004242800442420C0000203D
:1009B0000070004010B5401EB0F1807F01D30120CF
:1009C00010BD4FF0E02460610F21601700F0D3FAF2
:1009D0000020A06107202061002010BD70B590F8B4
:1009E0003C20012A26D0012480F83C40022280F8D5
:1009F0003D2003685A689D6822F070060A683243F9
:100A00005A600D4B02689A4208D0B2F1804F05D06F
:100A10000A4B9A4202D00A4B9A4204D1496825F007
:100A200080031943916080F83D40002180F83C101C
:100A3000084670BD022070BD002C0140000400403B
:100A40000008004010B5040003D094F83D0010B138
:100A500007E0012010BD002084F83C00204600F093
:100A60001FF8022084F83D00211D206800F09AF94B
:100A7000012084F8460084F83E0084F83F0084F8A2
:100A8000400084F8410084F8420084F8430084F870
:100A9000440084F8450084F83D00002010BD0000AB
:100AA00008B500680B49884212D10B48C16941F072
:100AB0000401C161C069002200F00400009002211D
:100AC0001E20FFF7C9FCBDE808401E20FFF7B6BC9A
:100AD00008BD0000000800400010024070B5044648
:100AE00090F83C00012817D0012584F83C500220E2
:100AF00084F83D002068826822F0770222F47F4269
:100B000082600868502830D00DDC20284DD005DCEC
:100B100098B310283BD148E0022070BD302844D063
:100B2000402834D139E0602828D0702806D0B0F5AC
:100B3000805F2CD0B0F5005F29D10AE0CB68D1E905
:100B40000121206800F064F92068816841F0770194
:100B500009E0CB68D1E90121206800F059F920684B
:100B6000816841F48041816011E0CA684968206869
:100B700000F060F95021206807E016E0CA68496873
:100B8000206800F068F96021206800F04BF984F8D3
:100B90003D50002084F83C0070BDCA684968206858
:100BA00000F048F940212068EFE72268014610462E
:100BB000EBE770B5040004D094F83900002510B1BB
:100BC00006E0012070BD84F83850204600F022F87D
:100BD000242084F839002068C16821F40051C160E4
:100BE000204600F04BF92068016921F49041016131
:100BF0002068416921F02A0141612068C16841F4FF
:100C00000051C160E563202084F8390084F83A007F
:100C1000002070BD30B585B000240094019402948A
:100C200003940068184988422CD11848816941F41E
:100C300080418161816901F480410491816941F0C1
:100C4000040181618069124D00F0040004904FF4AA
:100C5000007000900220019003200390694628460E
:100C6000FFF798FA2815CDE9000469462846029452
:100C7000FFF790FA002201212520FFF7EDFB252048
:100C8000FFF7DCFB05B030BD00380140001002402A
:100C900000080140FEE70000F0B585B0002000909C
:100CA0000190029003901948816941F0200181610F
:100CB000816901F020010491816941F004018161A1
:100CC0008069012200F00400114E140204902146B4
:100CD0003046FFF74FFB0F4F012204213846FFF744
:100CE00049FB009401240325694630460194CDE96F
:100CF0000245FFF74FFA0420CDE900046946384663
:100D0000CDE90245FFF746FA05B0F0BD00100240FC
:100D10000008014000140140FEE7FEE770477047FD
:100D2000FFF734BB30B58FB028216846FFF713FAC0
:100D300014210AA8FFF70FFA01210804CDE90010D9
:100D40000024029402250491CDE907504FF4E010ED
:100D500009906846FFF79EFC08B172B6FEE70F20C7
:100D6000CDE90A054FF48060CDE90C4002210AA8C4
:100D70000E94FFF7A3FB002801D072B6FEE70FB078
:100D800030BD7047054800680169C90705D06FF09C
:100D9000010101610248006800477047F40000202B
:100DA00038000020F0B50268164B174C174D4FF075
:100DB0008047984205D0B84203D0A04201D0A84253
:100DC00003D122F070064A683243984205D0B842F7
:100DD00003D0A04201D0A84203D122F44074CA68D3
:100DE00022434C6922F08002224302608A68C26278
:100DF0000A688262984201D1096901630121416157
:100E0000F0BD0000002C014000040040000800403C
:100E100010B5846842EA032224F47F440A43224343
:100E2000826010BD826822F070020A4342F007011E
:100E30008160704710B5036A046A24F001040462FB
:100E4000846924F0F00444EA021423F00A020A43FD
:100E50008461026210BD10B5036A23F010030362BF
:100E60008369046A23F4704343EA023224F0A00346
:100E700043EA01118261016210BD000070B50446B1
:100E800000680169E26821F4405111430161216960
:100E9000A0680843616908432168CA6841F20C638D
:100EA0009A430243CA6020684169A26921F44071F3
:100EB000114341611E492068884202D1FFF7A4FB1B
:100EC00001E0FFF791FB00EBC00101EB001260684D
:100ED00064218000B2FBF0F3B3FBF1F36FF018066E
:100EE0007343B2FBF0F5B2FBF0F605EB830532235A
:100EF00003EB0515B5FBF1F5B6FBF1F605F0F005D2
:100F000005EB0615B2FBF0F6B2FBF0F0B0FBF1F02A
:100F10006FF01802504306EB800003EB0010B0FBAB
:100F2000F1F0216800F00F002844886070BD0000D7
:100F30000038014010B50C4C20680168890605D5C1
:100F40006FF020010160094800688047206801684F
:100F5000090607D56FF08001016005480068BDE80B
:100F60001040004710BD00003C0100203000002070
:100F700034000020FEE70907090E002804DB00F119
:100F8000E02080F80014704700F00F0000F1E0202E
:100F900080F8141D704702E008C8121F08C1002A1B
:100FA000FAD170477047002001E001C1121F002AEA
:100FB000FBD1704770B516460846002472B60A2168
:100FC000084DE9700722314600F014FE012805D1D2
:100FD00044F6206000F03CFE012800D0032462B6F5
:100FE000204670BDBC0000202DE9F0411646884621
:100FF0000746002572B60E4CA088FF2801D9AFF332
:101000000080A088032804D3A188A06800F093FC86
:1010100020B1052562B62846BDE8F081A06810F829
:10102000011B3970A188891E3180C8F80000F1E7E2
:10103000BC00002070B50346002572B60F4C6078E6
:1010400018B1052562B6284670BD491E0126E1602B
:101050000846E6800B70E1881144E180E18800F0E9
:101060006AFC0146E088A2680244401CE0801170DE
:1010700026700121002000F081FCE3E7BC00002085
:1010800010B572B60021012000F078FC0349002061
:10109000487062B6BDE8104000F09CBDBC00002066
:1010A00010B572B60021084600F068FC00F07EFC26
:1010B00062B610BD70B5064D00242878012802D014
:1010C0000624204670BD2869804700202870F8E774
:1010D0001000002070B50C460988002505292FD185
:1010E000417840F2CF760A0281781143C278491CD8
:1010F0001302027989B21A43531EB34220D200234D
:101100002380012300F8013B2688761C26805607A1
:1011100003D003EBD203DEB201E0C2F3C70600F84E
:10112000016B23885B1C2380002300F0F3FA18B1C5
:1011300000F0E7FB054604E020883044208000E012
:101140000325284670BD70B50C4609880025052981
:101150002FD1417840F2CF760A0281781143C278CC
:10116000491C1302027989B21A43531EB34220D29A
:1011700000232380022300F8013B23885B1C23808B
:10118000530704D0012303EBD203DEB201E0C2F324
:10119000C70600F8016B23885B1C238000F008FB66
:1011A00018B100F0AEFB054604E0208830442080F2
:1011B00000E00325284670BD70B50C46098800265E
:1011C000052925D1417805790A0281781143491C06
:1011D0006A1E89B27C2A1BD800222280032200F8D2
:1011E000012B22880023521C22806A0000F8012B68
:1011F0002288521C22802A4600F01AFB18B100F007
:1012000080FB064605E0208800EB4500208000E0DA
:101210000326304670BD70B50C46098800260529A6
:1012200027D1417805790A0281781143C278491C97
:1012300045EA02256A1E89B27C2A1AD2002222803F
:10124000042200F8012B2288521C22806A0000F838
:10125000012B2288521C22802A4600F015FB18B16F
:1012600000F04FFB064605E0208800EB450020809B
:1012700000E00326304670BD2DE9F04104460888A1
:1012800000270D460A2842D3607826790102A0780B
:10129000227A0843401C1FFA80F8E07846EA0026CC
:1012A0006079731E0102A0790843401C81B2E07985
:1012B0007C2B42EA0022607A28D83AB3792A25D8D2
:1012C000B0EB420F22D1012304F10A0000F0B0FA82
:1012D00098B900212980172121702988601C491C98
:1012E0002980710000F8011B29880023491C2980EE
:1012F0003246414600F09CFA18B100F002FB074666
:1013000005E0288800EB4600288000E003273846E7
:10131000BDE8F08170B5064C0D4606492288401C98
:10132000FEF700FF2088401C2880002070BD0000D0
:10133000CC0000207C01002038B509880024052954
:101340000BD141780A0281781143491C027989B294
:101350001AB9C278FF2A03D012B10324204638BD3F
:1013600000228DF80120C078FF280CD08DF80020D5
:1013700001231A46684600F0CDF90028EED000F0AF
:10138000C0FA0446EAE701208DF80000F0E710B546
:1013900009880024052902D00324204610BD417885
:1013A00001230A028178C01C1143491C89B21A46E4
:1013B00000F03EFA0028F0D000F0A3FA0446ECE773
:1013C0002DE9F0410D4609880024052926D94178E8
:1013D00043790A0281781143491C8EB2C17802799F
:1013E00042EA0122510704D0012101EBD201C9B226
:1013F00001E0C2F3C701571EB7F5F66F0ED299424E
:101400000CD101233146801D00F084F918B100F0A1
:1014100078FA044603E00520288000E003242046F3
:10142000BDE8F08170B50D460988002406291DD35A
:1014300041780A0281781143C278491C130202796B
:1014400089B21A434379561E772E0FD85606360EA8
:101450009E420BD10123801D00F0EAF918B100F083
:1014600050FA044603E00520288000E003242046CB
:1014700070BD00002DE9F0411D46069B174606464B
:1014800041B1F72906D81E4C0846217100211EB132
:10149000012E15D002252EE01A4A22611A4A6261F5
:1014A0001A4AE2601A4AC4E906211A4921621A4915
:1014B00061621A49A1622A46394600F099F812E0A1
:1014C000174A2261174A6261174AE260174AC4E963
:1014D000062117492162174961621749A1622A460C
:1014E0003946FFF767FD050005D100F06BFB28B119
:1014F0006671012020702846BDE8F0810325FAE7D7
:1015000010000020E11600080117000885160008E9
:1015100031160008C51C00086D1D00082D1D0008AF
:1015200081100008A110000835100008E90F00081C
:10153000E9190008FD1A0008CD1A000838B52B4C2F
:10154000207808B1062038BD684600F02DFB012840
:101550004AD19DF80000E8B3012802D0022843D107
:101560000FE0224AA369921D911CC81F984788BBAF
:1015700060782179884200D060BB022000F02AFB0D
:1015800032E0A0680121194B0278A270E1700021BD
:1015900013F12C0313F8315065B1954207D103EBD9
:1015A000C1014A681149891D9047E07002E0491C59
:1015B0001029EFDB607868B1E07880B10021E1802C
:1015C000A17841F08002A1680A70E288521C92B2B0
:1015D000E28000E008E08854E088401CE080D4E924
:1015E0000213E28820799847002038BD10000020BF
:1015F00070B515460846002472B60822294600F048
:10160000F9FA01280DD1B5F5964F01D9232003E051
:1016100006496800B1FBF0F080B200F019FB012828
:1016200000D0032462B6204670BD0000A07F1700E2
:101630002DE9F041164688460746002572B60F4C44
:10164000A088FF2801D9AFF30080A088042804D324
:10165000A1880B4800F07CF920B1052562B6284628
:10166000BDE8F081064800783870A088C01E308040
:101670000348401CC8F80000F0E70000D00000203C
:101680009C01002070B50346002572B6124C6078AC
:10169000012803D0052562B6284670BD491E0126E3
:1016A000A160084666800B70618811446180618882
:1016B00000F04EF96188094A5318491C618018707E
:1016C000010A60880244401C60801170267001216C
:1016D000002000F053F9DEE7D00000209C0100203C
:1016E00010B572B60020054948700146012000F08F
:1016F00045F900F06DF962B610BD0000D000002081
:1017000010B572B60021084600F038F900F04EF925
:1017100062B610BDF0B5491E89B28C180A2C01D9E9
:101720000120F0BD541EE51704EB5575012404EBB0
:10173000E5061E4D012B18D1F4B213E010F8016B31
:1017400000230AE026FA03F707F001076F54491C4B
:10175000521E5B1C89B292B2DBB20AB1082BF1D3E4
:10176000641EE4B2002CE9D11EE016F0FF061BD087
:1017700000273B4611E000BF15F801E0BEF1000F65
:1017800005D004FA03FC4CEA070C0CF0FF07521ECC
:10179000491C5B1C92B289B2DBB20AB1082BEBD3B5
:1017A00000F8017B761EE0E70020F0BDDC000020A1
:1017B000F0B5491E8CB2A1180A2901D90120F0BD4B
:1017C000511ECB1701EB5371012505EBE101CEB2A0
:1017D00016491BE000273B4611E000BF11F804E06A
:1017E000BEF1000F05D005FA03FC4CEA070C0CF023
:1017F000FF07521E641C5B1C92B2A4B2DBB20AB19A
:10180000082BEBD3761E00F8017BF6B2002EE1D157
:1018100000200A5C3AB100220A54401C80B20A2817
:10182000F7D30020F0BD0122F6E70000E60000201B
:1018300010B5491E89B28C180A2C01D9012010BD9F
:10184000104C012B09D018E030F8023B5BBA24F8A9
:101850001130491C521E89B292B2002AF4D10EE016
:1018600034F811301B0A00F8013B14F81130491C00
:10187000521E00F8013B89B292B2002AF0D100203A
:1018800010BD0000B0020020491E10B58BB29C189C
:1018900010490A2C0FD9012010BD00BF31F81340A8
:1018A000240A00F8014B11F813405B1C521E00F88B
:1018B000014B9BB292B2002AF0D1002031F81020E7
:1018C000521C21F81020401C80B20A28F6D30020B8
:1018D00010BD00009C02002008B5FEF75FFDFFF779
:1018E00021FAFFF7D9F900204FF4165302460121DF
:1018F0000090FFF7BFFDFFF7DDFB00BFFFF71EFE07
:10190000FCE7002804D0012803D0072803D00420D6
:101910007047022070470620704710B5092801D88B
:10192000303004E0A0F10A01052902D83730C0B2F6
:1019300010BDAFF30080002203E010F8013B1A4411
:10194000D2B2491E89B2F8D25042C0B270470000EC
:1019500070B5094DFF231A4605F5807606E000BFF5
:1019600010F8014B54402A5D5A40335D491E89B23C
:10197000F6D242EA032070BDE01D00080A4B0028A1
:101980001A68D06802D040F0200001E020F020006A
:10199000D06018680029C16802D041F0800101E0E0
:1019A00021F08001C16070473C01002007480068B9
:1019B000016A41F21112114207D1016A92101142DB
:1019C00003D1016821F0010101607047F40000209B
:1019D00004480021026851620068016841F0010179
:1019E00001607047F4000020F8B5374C00272078DC
:1019F00008B1AFF30080684600F0F4F86078002585
:101A0000012670B3012802D002285AD139E0FFF72D
:101A1000DFFF9DF800003A2807D00D2808D0A0F17C
:101A20003001092907D8C8B20DE0A570A58048E0AB
:101A30000220607045E0A0F14101052902D8373845
:101A4000C0B200E0FF20A17811B1012939D10DE029
:101A5000A188FF2906D8A288A16800018854A67031
:101A60002FE025E06570FFF7A1FF2AE0A288A168BA
:101A700011440A7802430A70A088401CA080A57017
:101A80001FE09DF80000E178884207D1FFF78EFF44
:101A90006570012000F09EF8074612E03A2801D058
:101AA00065700EE0A570A5806670FFF791FF08E0F5
:101AB0009DF800003A2804D1FFF78AFFA580A570A1
:101AC00066703846F8BD0000BC0000200A4810B51A
:101AD0004178012909D0022907D04178012906D08F
:101AE0004078022803D0AFF3008000214170FFF757
:101AF0005DFF002010BD0000BC00002070B5294C27
:101B00000026607808B1AFF3008020780025052812
:101B100046D2DFE800F041030A3136003A2000F0F7
:101B200091F802202070A5703AE0E088F0B1A17829
:101B30001C48C06811B1012932D108E000780009C1
:101B4000FFF7EBFE00F07EF80120A07028E000789F
:101B500000F00F00FFF7E1FE00F074F8E068401CB1
:101B6000E060A570E088401EE08019E00D2000F0E4
:101B700069F80320207013E0E07800F063F8042097
:101B8000F8E72570032000F025F806460021012023
:101B9000FFF7F4FE257003E000210120FFF7EEFEC1
:101BA000304670BDBC0000200549024600204B783D
:101BB000002B04D008781070002048700120704776
:101BC000F00000200249002048700120704700000A
:101BD000F0000020024901224A7008701046704748
:101BE000F0000020024909680170012070470000E0
:101BF00004380140124810B5104AC0E90021002104
:101C00000C22C160C0E905214FF48052C161012B53
:101C100009D0022B0AD0016181600948FEF7C9FF93
:101C200048B1002010BD4FF4C06101E04FF4806165
:101C300082600161F1E7012010BD00000038014021
:101C40003C01002001490860012070470438014030
:101C500030B587B000251A4C009501950295039583
:101C6000049516490595216040F60F61401E61609C
:101C7000C4E9025025612046A561FEF7E3FE70B974
:101C80004FF48050009069462046FEF727FF30B998
:101C9000049504A920460595FEF7A0FE10B100208A
:101CA00007B030BD21686FF0010008612068C1688D
:101CB00041F00101C1600120F2E70000000800408E
:101CC000F400002038B5174C0025207808B1AFF398
:101CD00000806846FFF786FF607830B1124A01281D
:101CE00007D0022810D0032801D1FFF771FE284643
:101CF00038BD0020A0809DF80000A1880A44491C3E
:101D0000A180107002200BE0A088FF2807D89DF862
:101D10000010A0880244401CA0801170E5E7032059
:101D20006070E2E7D00000209C01002070B50E4DED
:101D30000024687870B102280BD003280DD0687891
:101D400058B16878022808D06878032805D0AFF326
:101D500000800120FFF73EFF0446FFF727FE012029
:101D60006870204670BD0000D000002070B5154C92
:101D700000256078012801D0AFF30080207810B1F1
:101D800001281CD104E000210120FFF7F7FD16E037
:101D9000608850B1A0680078FFF754FFA068401C2D
:101DA000A0606088401E608009E00320FFF712FFFA
:101DB000054600210120FFF7E1FD002020702846A4
:101DC00070BD0000D00000200000000000000000F6
:101DD00001020304060708090000000001020304D1
:101DE00000C1814001C0804101C0804100C18140EB
:101DF00001C0804100C1814000C1814001C08041DB
:101E000001C0804100C1814000C1814001C08041CA
:101E100000C1814001C0804101C0804100C18140BA
:101E200001C0804100C1814000C1814001C08041AA
:101E300000C1814001C0804101C0804100C181409A
:101E400000C1814001C0804101C0804100C181408A
:101E500001C0804100C1814000C1814001C080417A
:101E600001C0804100C1814000C1814001C080416A
:101E700000C1814001C0804101C0804100C181405A
:101E800000C1814001C0804101C0804100C181404A
:101E900001C0804100C1814000C1814001C080413A
:101EA00000C1814001C0804101C0804100C181402A
:101EB00001C0804100C1814000C1814001C080411A
:101EC00001C0804100C1814000C1814001C080410A
:101ED00000C1814001C0804101C0804100C18140FA
:101EE00000C0C101C30302C2C60607C705C5C404BA
:101EF000CC0C0DCD0FCFCE0E0ACACB0BC90908C82A
:101F0000D81819D91BDBDA1A1EDEDF1FDD1D1CDC19
:101F100014D4D515D71716D6D21213D311D1D01089
:101F2000F03031F133F3F23236F6F737F53534F479
:101F30003CFCFD3DFF3F3EFEFA3A3BFB39F9F838E9
:101F400028E8E929EB2B2AEAEE2E2FEF2DEDEC2CD9
:101F5000E42425E527E7E62622E2E323E12120E049
:101F6000A06061A163A3A26266A6A767A56564A439
:101F70006CACAD6DAF6F6EAEAA6A6BAB69A9A868A9
:101F800078B8B979BB7B7ABABE7E7FBF7DBDBC7C99
:101F9000B47475B577B7B67672B2B373B17170B009
:101FA00050909151935352929656579755959454F9
:101FB0009C5C5D9D5F9F9E5E5A9A9B5B9959589869
:101FC000884849894B8B8A4A4E8E8F4F8D4D4C8C59
:101FD00044848545874746868242438341818040C9
:101FE0000020000800000020F4000000960F000808
:101FF000F4200008F4000020D4110000A60F00080F
:102000000100000010000000000000000024F400A7
:1020100002000000000000000000000000000000BE
:1020200000000000000000000000000000000000B0
:10203000000000000000000000000000110000008F
:102040001513000804000000171200080300000028
:10205000B911000810000000251400080600000057
:102060008F1300081700000079120008010000001B
:10207000D510000805000000391300080F0000000B
:10208000C113000802000000471100080000000012
:102090000000000000000000000000000000000040
:1020A0000000000000000000000000000000000030
:1020B0000000000000000000000000000000000020
:1020C000000000009C010020000000000000000053
:1020D00000000000000000000000000001010101FC
:1020E00000000000010101010101000000000101E8
:0420F00000000000EC
:04000005080000ED02
:00000001FF
